:100000000C9462000C948A000C948A000C948A0070
:100010000C948A000C948A000C948A000C948A0038
:100020000C948A000C948A000C948A000C948A0028
:100030000C948A000C948A000C948A000C948A0018
:100040000C947A040C948A000C94EA040C94C40472
:100050000C948A000C948A000C948A000C948A00F8
:100060000C948A000C948A000000000024002700F1
:100070002A0000000000250028002B0000000000DE
:1000800023002600290004040404040404040202DA
:100090000202020203030303030301020408102007
:1000A0004080010204081020010204081020000012
:1000B0000008000201000003040700000000000027
:1000C00000001C0511241FBECFEFD8E0DEBFCDBF5E
:1000D00022E0A2E4B1E001C01D92A630B207E1F730
:1000E00011E0A0E0B1E0ECEFF4E102C005900D9268
:1000F000A234B107D9F710E0C2E6D0E004C02197DE
:10010000FE010E94710AC136D107C9F70E945F053E
:100110000C947C0A0C940000833081F028F4813028
:1001200099F08230A1F008958730A9F08830B9F0B5
:100130008430D1F4809180008F7D03C08091800055
:100140008F7780938000089584B58F7702C084B53F
:100150008F7D84BD08958091B0008F7703C080911A
:10016000B0008F7D8093B0000895CF93DF93282F48
:1001700030E0F901E255FF4F8491F901E656FF4F57
:10018000D491F901EA57FF4FC491CC2391F081112A
:100190000E948C00EC2FF0E0EE0FFF1FE458FF4FA1
:1001A000A591B491EC91ED2381E090E021F480E001
:1001B00002C080E090E0DF91CF9108951F93CF932C
:1001C000DF93282F30E0F901E255FF4F8491F901C8
:1001D000E656FF4FD491F901EA57FF4FC491CC2363
:1001E000C1F0162F81110E948C00EC2FF0E0EE0F71
:1001F000FF1FEE58FF4FA591B4919FB7F8941111CE
:1002000004C08C91D095D82302C0EC91DE2BDC93F6
:100210009FBFDF91CF911F9108959CB59F7D9CBD9D
:100220009CB5937F9CBD9CB59C7F9CBD9DB591600A
:100230009DBD682F8091EE010C94DE00CF93DF937B
:1002400090E0FC01E656FF4F2491FC01EA57FF4F76
:100250008491882361F190E0880F991FFC01E8598F
:10026000FF4FC591D491FC01EE58FF4FA591B49179
:10027000611109C09FB7F8948881209582238883F3
:10028000EC912E230BC0623061F49FB7F894888103
:10029000322F309583238883EC912E2B2C939FBF94
:1002A00006C08FB7F894E8812E2B28838FBFDF918B
:1002B000CF9108953FB7F8948091480190914901FA
:1002C000A0914A01B0914B0126B5A89B05C02F3FD4
:1002D00019F00196A11DB11D3FBFBA2FA92F982F6C
:1002E0008827820F911DA11DB11DBC01CD0142E0E7
:1002F000660F771F881F991F4A95D1F708958F922F
:100300009F92AF92BF92CF92DF92EF92FF926B01DA
:100310007C010E945A014B015C01C114D104E1042B
:10032000F104F1F00E945A01DC01CB01881999090E
:10033000AA09BB09883E9340A105B10570F321E0ED
:10034000C21AD108E108F10888EE880E83E0981EF1
:10035000A11CB11CC114D104E104F10419F7DDCFD3
:10036000FF90EF90DF90CF90BF90AF909F908F90D5
:100370000895EF92FF921F93CF93DF932FB7F894D6
:1003800080914C0190914D01A0914E01B0914F018F
:100390002FBF4091010250910202609103027091BF
:1003A000040284179507A607B70740F410920102CC
:1003B0001092020210920302109204022091050290
:1003C000211113C040910102509102026091030279
:1003D00070910402841B950BA60BB70B803D9740D0
:1003E000A105B10510F481E092C0109205022FB76B
:1003F000F89480914C0190914D01A0914E01B091E3
:100400004F012FBF8093010290930202A093030239
:10041000B09304021092FC011092FB011092FA01B9
:100420001092F9011092F80161E08091FE010E94A2
:10043000DE006AEF70E080E090E00E947F0161E002
:100440008091FE010E941E0160E08091FE010E94E9
:10045000DE0064E170E080E090E00E947F01F894AB
:1004600061E08091FE010E94DE008BE990E001973F
:10047000F1F760E08091FE010E941E0110E081E032
:10048000C0E0D0E0E82EF12C8091FE010E94B50082
:100490008E159F0519F4DF5FDF3FB1F78091FE01F4
:1004A0000E94B500DF3FC1F0C43098F0C0FD11C01C
:1004B000E12FE695E695E695F0E0E850FE4F908155
:1004C000990F9083209100022D1710F49160908372
:1004D0001F5FCF5FC535A9F678941832B8F0209128
:1004E000FC0130E04091F8018091F90190E0840F27
:1004F000911D4091FA01840F911D4091FB01840FE1
:10050000911D99272817390709F46DCF80E0DF91F5
:10051000CF911F91FF90EF900895CF92DF92EF92CD
:10052000FF920F931F93CF93DF936C017A018B019E
:10053000C0E0D0E0CE15DF0581F0D8016D918D01CE
:10054000D601ED91FC910190F081E02DC601099555
:10055000892B11F02196EECF7E01C701DF91CF915B
:100560001F910F91FF90EF90DF90CF900895089525
:1005700080E090E00895FC01538D448D252F30E0FC
:10058000842F90E0821B930B541710F0CF960895A0
:1005900001970895FC01918D828D981761F0828DED
:1005A000DF01A80FB11D5D968C91928D9F5F9F73A7
:1005B000928F90E008958FEF9FEF0895FC01918D49
:1005C000828D981731F0828DE80FF11D858D90E0B6
:1005D00008958FEF9FEF0895FC01918D228D892F53
:1005E00090E0805C9F4F821B91098F73992708953B
:1005F00080E591E00E94EC0221E0892B09F420E0E3
:10060000822F0895FC01848DDF01A80FB11DA35A2C
:10061000BF4F2C91848D90E001968F739927848F22
:10062000A689B7892C93A089B1898C918370806445
:100630008C93938D848D981306C00288F389E02DE6
:1006400080818F7D80830895EF92FF920F931F9397
:10065000CF93DF93EC0181E0888F9B8D8C8D981375
:1006600005C0E889F989808185FD26C0F62E0B8DAD
:1006700010E00F5F1F4F0F731127E02E8C8DE812D3
:100680000CC00FB607FCFACFE889F989808185FF95
:10069000F5CFCE010E940203F1CF8B8DFE01E80F52
:1006A000F11DE35AFF4FF0829FB7F8940B8FEA8950
:1006B000FB89808180620AC09FB7F894EE89FF8928
:1006C0006083E889F98980818370806480839FBF1B
:1006D00081E090E0DF91CF911F910F91FF90EF901B
:1006E0000895CF93DF93EC01888D8823C9F0EA89C0
:1006F000FB89808185FD05C0A889B9898C9186FD1B
:100700000FC00FB607FCF5CF808185FFF2CFA88917
:10071000B9898C9185FFEDCFCE010E940203E7CF0E
:10072000DF91CF91089580E090E0892B29F00E941D
:10073000F80281110C94000008958EBD00000DB4E4
:1007400007FEFDCF8EB50895CF93DF93C82FD62F28
:1007500080E00E940D018C2F8F7180620E949D03AA
:10076000C82F8D2F0E949D0381E00E940D018C2FC8
:10077000DF91CF910895EF92FF920F931F93CF9344
:10078000DF93182F7B01C42F80E00E940D01812F81
:100790008F7180620E949D03D82F8701CC2339F08E
:1007A000F80181918F010E949D03C150F7CF81E034
:1007B0000E940D018D2FDF91CF911F910F91FF901E
:1007C000EF900895CF93C82F80E00E940D018C2FE9
:1007D0008F710E949D038FEF0E949D03C82F81E0BF
:1007E0000E940D018C2FCF9108950F931F93CF93EB
:1007F0008C0186E00E94E203C82FC77D02301105FC
:1008000011F4C06204C00130110509F4C8606C2FF6
:1008100086E00E94A40386E00E94E20391E0C813F0
:1008200090E0892FCF911F910F910895CF93C82FFA
:1008300080E00E940D018C2F0E949D03C82F81E053
:100840000E940D018C2FCF910895009769F0FC0153
:1008500001900020E9F73197AF01481B590BBC010B
:1008600080E591E00C948D0280E090E008958F92F5
:100870009F92AF92BF920F931F93CF93DF93CDB709
:10088000DEB7A1970FB6F894DEBF0FBECDBF19A299
:10089000423008F44AE08E010F5D1F4F842E912CE8
:1008A000A12CB12CA50194010E944F0AE62FB90199
:1008B000CA0101501109EA3014F4E05D01C0E95C9D
:1008C000D801EC93232B242B252B61F7C8010E9420
:1008D0002504A1960FB6F894DEBF0FBECDBFDF9101
:1008E000CF911F910F91BF90AF909F908F900895DF
:1008F0000E94770A1F920F920FB60F9211242F9326
:100900003F938F939F93AF93BF9380914C019091AE
:100910004D01A0914E01B0914F013091470123E06C
:10092000230F2D3720F40196A11DB11D05C026E827
:10093000230F0296A11DB11D2093470180934C0106
:1009400090934D01A0934E01B0934F0180914801C7
:1009500090914901A0914A01B0914B010196A11DCE
:10096000B11D8093480190934901A0934A01B0932F
:100970004B01BF91AF919F918F913F912F910F901C
:100980000FBE0F901F9018951F920F920FB60F92E7
:1009900011242F933F934F935F936F937F938F9384
:1009A0009F93AF93BF93EF93FF9380E591E00E94F5
:1009B0000203FF91EF91BF91AF919F918F917F9132
:1009C0006F915F914F913F912F910F900FBE0F90BC
:1009D0001F9018951F920F920FB60F9211242F930C
:1009E0008F939F93EF93FF93E0916001F0916101EA
:1009F0008081E0916601F091670182FD12C09081D3
:100A0000809169018F5F8F7320916A01821751F085
:100A1000E0916901F0E0E05BFE4F958F8093690102
:100A200001C08081FF91EF919F918F912F910F9045
:100A30000FBE0F901F901895E0E5F1E0138212822F
:100A400088EE93E0A0E0B0E084839583A683B7832B
:100A500084E091E09183808385EC90E095878487A2
:100A600084EC90E09787868780EC90E0918B808B78
:100A700081EC90E0938B828B82EC90E0958B848B61
:100A800086EC90E0978B868B118E128E138E148ECF
:100A9000E8EFF1E088E086838BE0878386E080875B
:100AA00081E08587EDEEF1E089E080838AE0818353
:100AB000128280E28383148285E082870895CF9337
:100AC000DF93CDB7DEB728970FB6F894DEBF0FBE21
:100AD000CDBF789484B5826084BD84B5816084BDC7
:100AE00085B5826085BD85B5816085BD80916E00CC
:100AF000816080936E0010928100809181008260FD
:100B00008093810080918100816080938100809139
:100B100080008160809380008091B1008460809328
:100B2000B1008091B00081608093B00080917A0024
:100B3000846080937A0080917A00826080937A004A
:100B400080917A00816080937A0080917A00806839
:100B500080937A001092C100E0916001F0916101F0
:100B600082E08083E0915C01F0915D011082E09170
:100B70005E01F0915F018FEC808310926801E0913B
:100B80006401F091650186E08083E0916201F0915B
:100B90006301808180618083E0916201F091630153
:100BA000808188608083E0916201F091630180819F
:100BB00080688083E0916201F091630180818F7D84
:100BC000808382E191E00E9425048EE191E00E9401
:100BD000250460E08091FE010E941E0161E0809189
:100BE000FE010E94DE001092010210920202109299
:100BF00003021092040261E08091ED010E941E0147
:100C000061E08091EE010E941E011FB7F89480916F
:100C10004201811127C0E0E9F0E08491E4EAF0E0CC
:100C20009491E82FF0E0EE0FFF1FE859FF4FA591D8
:100C3000B491EC91E92321F461E08AE00E94DE00A6
:100C400061E08AE00E941E018CB580618CBD8CB58C
:100C500080648CBD61E08DE00E941E0161E08BE04C
:100C60000E941E01809142018F5F809342011FBF4D
:100C700060E08091ED010E94DE0081E00E940D01A4
:100C800065E070E080E090E00E947F016FE584E025
:100C90000E94A40382E090E00E94F503882319F0EB
:100CA00081E08093EF0180E090E00E94F50380E016
:100CB0000E94E203682F6C6080E00E94A40360E75A
:100CC00087E00E94A4036CE485E00E94A40382EE06
:100CD0000E94160481EE0E94160480E00E94E20346
:100CE00081FD0EC080E00E94E203682F626080E018
:100CF0000E94A40365E070E080E090E00E947F0124
:100D000080E00E94E203682F6E7F80E00E94A403CF
:100D100062E070E080E090E00E947F0169E085E0A1
:100D20000E94A40380E090E00E94F50386E00E9408
:100D3000E203887F682F656086E00E94A40384EF49
:100D4000898383EF8A8382EF8B8381EF8C8380EFAB
:100D50008D831E821F8218864091F701BE016F5F4E
:100D60007F4F8AE00E94BB034091F701BE016F5F95
:100D70007F4F80E10E94BB036091F00181E10E94FE
:100D8000A40368EE73E080E090E00E947F0161E0E0
:100D900085E00E941E0161E085E00E94DE0060EDBA
:100DA00077E080E090E00E947F010E94B9018823F3
:100DB00089F18091FF018B3029F160F185518230FA
:100DC00048F56091F80170E080E090E00E942B0906
:100DD00020E030E040E853E40E94B9096B017C0157
:100DE0006091F90170E080E090E00E942D09A70178
:100DF00096010E94170820E030E040E251E40E9492
:100E000083080CC06091F80170E080E090E00E94DF
:100E10002B0904C060E070E080EC9FE70E94F508B9
:100E20006B017C010E94B9018823B9F18091FF0117
:100E30008B3029F090F18551823048F02EC06091BE
:100E4000FA0170E080E090E00E942B092AC0109126
:100E5000FA01612F6F7770E080E090E00E942D0929
:100E600020E030E040E853E40E94B9094B015C0106
:100E70006091FB0170E080E090E00E942D09A501E7
:100E800094010E94170820E030E040E251E40E9403
:100E9000830817FF06C0905804C060E070E080EC43
:100EA0009FE70E94F5084B015C01B6010D2C000C78
:100EB000880B990B0E942D099B01AC010E94260A08
:100EC00081110EC0B401092C000C880B990B0E94F3
:100ED0002D099B01AC010E94260A882309F49DC0BC
:100EE00081E291E00E9425048EE191E00E942504B8
:100EF0008091F101811102C01CE101C010E080E08D
:100F00000E940D0180EA0E949D03809143010E948E
:100F10009D03809144010E949D03809145010E94A0
:100F20009D03809146010E949D03115010F080E0C6
:100F3000FACF81E00E940D0161E08091ED010E94F5
:100F4000DE008FEF0E9416048073D9F360E0809179
:100F5000ED010E94DE0060E787E00E94A40384FFA9
:100F600003C081EE0E941604C0904301D09044015A
:100F70000D2C000CEE08FF08F7FE0EC06DE280E5B8
:100F800091E00E94240366277727CB016C197D0925
:100F90008E099F094AE003C04AE0C701B6010E94DA
:100FA00037048EE191E00E942504C0904501D09065
:100FB00046010D2C000CEE08FF08F7FE0EC06DE296
:100FC00080E591E00E94240366277727CB016C1906
:100FD0007D098E099F094AE003C04AE0C701B601B6
:100FE0000E9437048EE191E00E9425048091430124
:100FF00090914401469724F460E085E00E94DE0071
:101000008091430190914401499724F061E085E08B
:101010000E94DE000E949303C2CED0924601C0928D
:101020004501909244018092430162CF5058BB2702
:10103000AA270E942E080C947F090E94710938F09B
:101040000E94780920F039F49F3F19F426F40C949B
:101050006E090EF4E095E7FB0C946809E92F0E94F5
:10106000900958F3BA17620773078407950720F0B1
:1010700079F4A6F50C94B2090EF4E0950B2EBA2F74
:10108000A02D0B01B90190010C01CA01A00111248E
:10109000FF27591B99F0593F50F4503E68F11A163A
:1010A000F040A22F232F342F4427585FF3CF4695CB
:1010B00037952795A795F0405395C9F77EF41F16ED
:1010C000BA0B620B730B840BBAF09150A1F0FF0FB7
:1010D000BB1F661F771F881FC2F70EC0BA0F621FA3
:1010E000731F841F48F4879577956795B795F79593
:1010F0009E3F08F0B0CF9395880F08F09927EE0F28
:101100009795879508950E9497080C947F090E94EF
:10111000780958F00E94710940F029F45F3F29F0E6
:101120000C94680951110C94B3090C946E090E9437
:10113000900968F39923B1F3552391F3951B550B4F
:10114000BB27AA2762177307840738F09F5F5F4F9A
:10115000220F331F441FAA1FA9F335D00E2E3AF0D9
:10116000E0E832D091505040E695001CCAF72BD0F1
:10117000FE2F29D0660F771F881FBB1F2617370742
:101180004807AB07B0E809F0BB0B802DBF01FF2774
:1011900093585F4F3AF09E3F510578F00C946809E0
:1011A0000C94B3095F3FE4F3983ED4F386957795AA
:1011B0006795B795F7959F5FC9F7880F911D96952D
:1011C000879597F90895E1E0660F771F881FBB1F89
:1011D000621773078407BA0720F0621B730B840B36
:1011E000BA0BEE1F88F7E09508950E94FC086894FA
:1011F000B1110C94B30908950E94980988F09F5783
:1012000098F0B92F9927B751B0F0E1F0660F771F2A
:10121000881F991F1AF0BA95C9F714C0B13091F020
:101220000E94B209B1E008950C94B209672F782F9B
:101230008827B85F39F0B93FCCF3869577956795E5
:10124000B395D9F73EF490958095709561957F4F51
:101250008F4F9F4F0895E89409C097FB3EF49095F7
:101260008095709561957F4F8F4F9F4F9923A9F07F
:10127000F92F96E9BB279395F6958795779567950E
:10128000B795F111F8CFFAF4BB0F11F460FF1BC052
:101290006F5F7F4F8F4F9F4F16C0882311F096E9E5
:1012A00011C0772321F09EE8872F762F05C0662393
:1012B00071F096E8862F70E060E02AF09A95660F4C
:1012C000771F881FDAF7880F9695879597F9089505
:1012D00097F99F6780E870E060E008959FEF80ECE9
:1012E000089500240A94161617061806090608958C
:1012F00000240A9412161306140605060895092EF2
:101300000394000C11F4882352F0BB0F40F4BF2B60
:1013100011F460FF04C06F5F7F4F8F4F9F4F0895A0
:1013200057FD9058440F551F59F05F3F71F0479596
:10133000880F97FB991F61F09F3F79F0879508957B
:10134000121613061406551FF2CF4695F1DF08C09A
:10135000161617061806991FF1CF869571056105B7
:1013600008940895E894BB2766277727CB0197F95F
:1013700008950E94CC090C947F090E94710938F0ED
:101380000E94780920F0952311F00C9468090C94C0
:101390006E0911240C94B3090E94900970F3959F73
:1013A000C1F3950F50E0551F629FF001729FBB275C
:1013B000F00DB11D639FAA27F00DB11DAA1F649FF8
:1013C0006627B00DA11D661F829F2227B00DA11DAB
:1013D000621F739FB00DA11D621F839FA00D611D31
:1013E000221F749F3327A00D611D231F849F600D52
:1013F000211D822F762F6A2F11249F5750409AF07B
:10140000F1F088234AF0EE0FFF1FBB1F661F771F06
:10141000881F91505040A9F79E3F510580F00C94D1
:1014200068090C94B3095F3FE4F3983ED4F38695C2
:1014300077956795B795F795E7959F5FC1F7FE2B71
:10144000880F911D9695879597F908950E942B0A0C
:10145000880B990B0895990F0008550FAA0BE0E827
:10146000FEEF16161706E807F907C0F01216130666
:10147000E407F50798F0621B730B840B950B39F4A6
:101480000A2661F0232B242B252B21F408950A260C
:1014900009F4A140A6958FEF811D811D0895A1E259
:1014A0001A2EAA1BBB1BFD010DC0AA1FBB1FEE1FDE
:1014B000FF1FA217B307E407F50720F0A21BB30B29
:1014C000E40BF50B661F771F881F991F1A9469F7A5
:1014D00060957095809590959B01AC01BD01CF0101
:1014E0000895EE0FFF1F0590F491E02D099481E01F
:0C14F00090E0F8940C947C0AF894FFCF74
:1014FC000000000024038D02BB027103EC02CA023F
:10150C00DE024448547878207465737421000D0A07
:10151C00004661696C656420746F2072656164209B
:10152C0066726F6D204448542073656E736F722120
:02153C000000AD
:00000001FF
